:020000040800F2
:10000000D006002091010008990100089B0100081A
:100010009D0100089F010008A101000800000000E8
:10002000000000000000000000000000A301000824
:10003000A501000800000000A70100083510000815
:10004000AB010008AB010008AB010008AB010008E0
:10005000AB010008AB010008AB010008AB010008D0
:10006000AB010008AB010008AB010008AB010008C0
:10007000AB010008AB010008AB010008AB010008B0
:10008000AB010008AB01000861040008AB010008E7
:10009000AB010008AB010008AB010008AB01000890
:1000A000AB010008AB010008AB010008AB01000880
:1000B000AB010008AB0100083D110008AB010008CE
:1000C000AB010008AB010008AB010008AB01000860
:1000D000AB010008AB010008AB010008AB01000850
:1000E000AB010008AB010008AB01000800F002F80A
:1000F00000F03FF80AA090E8000C82448344AAF183
:100100000107DA4501D100F034F8AFF2090EBAE880
:100110000F0013F0010F18BFFB1A43F0010318473B
:10012000A82D0000C82D0000103A24BF78C878C15F
:10013000FAD8520724BF30C830C144BF04680C60ED
:10014000704700000023002400250026103A28BF35
:1001500078C1FBD8520728BF30C148BF0B60704739
:10016000642900F07D80002070471FB51FBD10B5C9
:1001700010BD00F03FF91146FFF7F7FF01F060FAFC
:1001800000F05DF903B4FFF7F2FF03BC00F060F983
:100190000948804709480047FEE7FEE7FEE7FEE71B
:1001A000FEE7FEE7FEE7FEE7FEE7FEE70448054957
:1001B000054A064B704700004D100008ED0000088E
:1001C000D0000020D0060020D0020020D002002065
:1001D0000FB41CB5074B06AA7B44694600900598EE
:1001E00000F0E7F80020694600F0F6F81CBC5DF866
:1001F00014FB0000FD0100002DE9F0410E4604460D
:10020000002020622046E168884730B3252805D0C9
:10021000D4E901219047206A401CF2E7E1682046BA
:1002200000278847050018D0A5F14100192802D8F9
:1002300020354FF400673246294620462760FFF7F5
:100240008FFF40B1012804D0F61D26F007060836BE
:10025000D8E7361DD6E72846DAE7206ABDE8F08100
:100260002DE9F0410646002410687529314616A58F
:1002700010D0AFF30080002802DA404213A507E057
:1002800031688A0701D512A502E0490704D511A5F6
:10029000012401E0AFF3008000210A2206F12407C7
:1002A00009E0B0FBF2FCB0FBF2F302FB1C003030C3
:1002B00078541846491C0028F3D123462A46304674
:1002C000BDE8F04100F016B8000000002D0000006D
:1002D0002B0000002000000070477047704710B5E9
:1002E00000F080F8006810BD10B5044600F07AF800
:1002F000046010BD2DE9F0470D469946924604462C
:1003000000F124080168880604D5E06921F0100195
:10031000216000E00120A84201DD471B00E000272A
:10032000A1697A1902EB0900081AA0612078C006B9
:1003300002D42046AFF30080002608E0D4E9012172
:100340001AF806009047206A401C761C20624E4531
:10035000F4DB2078C0060AD52046AFF3008006E023
:10036000D4E9012130209047206A401C2062381EC9
:10037000A7F10107F4DC07E0D4E9012118F8050032
:100380009047206A401C2062281EA5F10105F3DC7D
:100390002046AFF300802078000602D50220BDE899
:1003A000F0870120FBE7000001694A1C0261087820
:1003B000704700B58FB0CDE90131002105910549A5
:1003C0007944CDE9031011466846FFF715FF0FB0D9
:1003D00000BD0000E5FFFFFF0A6802F8010B0A609C
:1003E00070470000004870476C00002000487047CC
:1003F0006C0000207546FFF7F9FFAE460500694620
:10040000534620F00700854618B020B5FFF7CEFE12
:10041000BDE820404FF000064FF000074FF0000805
:100420004FF0000B21F00701AC46ACE8C009ACE886
:10043000C009ACE8C009ACE8C0098D46704710B5EA
:100440000446AFF300802046BDE81040FFF79ABE97
:1004500001491820ABBEFEE72600020070470000ED
:100460000848016811F0040F06D007490A680749D7
:100470004A80074A12688A80016821F004010160FD
:1004800070470000002401403C240140000000208F
:10049000402401402248816941F400718161416832
:1004A00041F4404141601F48016821F00F010160A3
:1004B0001D48016821F4706101601C48016841F029
:1004C00001010160016841F008010160016811F05B
:1004D000080FFBD1016841F0040101600168144973
:1004E0000A6842F4B0620A6001684FF202021143E6
:1004F0000160114A0F49116010490A6842F48912DB
:100500000A600A6822F400120A604FF0E0224FF4F9
:100510008021C2F80011016841F4001101607047A8
:1005200000100240000C0140000801400824014076
:1005300004240140C0010007102401403824014078
:100540002DE9F041804617460E462A2000F032FD84
:10055000354D286840F008002860344C002021897F
:1005600011F0020F04D100BF218911F0020FFAD05F
:10057000A081208908F0FF0110F0020F04D100BF14
:10058000208910F0020FFAD0A1812089002110F0FB
:10059000020F04D100BF208910F0020FFAD0A18110
:1005A0002089F9B210F0020F04D100BF208910F0A9
:1005B000020FFAD0A1812B2000F0FCFC286840F04B
:1005C000080028602089002110F0020F04D100BF2C
:1005D000208910F0020FFAD0A1812089F1B210F029
:1005E000020F04D100BF208910F0020FFAD0A181C0
:1005F0002089002110F0020F04D100BF208910F0E3
:10060000020FFAD0A1812089D9B210F0020F04D1D3
:1006100000BF208910F0020FFAD0A181BDE8F0419F
:100620002C2000F0C7BC00000C0801400030014045
:1006300038B5044680880090A378E2786178207805
:1006400000F0BEF86178A078E2780844401E83B2DA
:100650002078491C0244521E92B2401CFFF770FFE2
:10066000E078A17800FB01FC2089C5B2030A2F487D
:10067000016841F0080101600022BCF1000F88BF51
:100680002B4817D9018911F0020F04D100BF01894D
:1006900011F0020FFAD08381018911F0020F04D109
:1006A00000BF018911F0020FFAD08581511C8AB276
:1006B0006245E7D3607C58B9208900906078E38870
:1006C000801CC1B22078E268801CC0B200F050F9F2
:1006D000607C012812D12078E17800EB5100217C68
:1006E000C1EBC101A0EB5100218900916178C0B23A
:1006F000891CE388C9B2E26800F03AF9607C0228FC
:1007000018BF38BDE07821780144207CC0EBC000E0
:10071000081A218900916178401E891CC0B2E388C3
:10072000C9B2E26800F024F938BD00000C080140AD
:100730000030014010B40024DDF804C004814FF6FD
:10074000FF748480C480012444740170CCEBCC011C
:100750004270C91CC1700F218170C36080F810C045
:1007600010BC704730B5C5B2040A0021A023802216
:100770000846FFF7E5FE1048016841F008010160F6
:100780000E480022018911F0020F04D100BF018937
:1007900011F0020FFAD08481018911F0020F04D107
:1007A00000BF018911F0020FFAD08581511C8AB275
:1007B000B2F5A04FE6D330BD0C0801400030014037
:1007C0002DE9F04F82B000EB020B0B9E9A460F46CC
:1007D0000BF0FF04804606F0FF09350A3B4622462F
:1007E000FFF7AEFEA4EB0800019002045E48120C75
:1007F000016841F0080101605C4C4FF0000119D024
:1008000020892B4610F0020F04D100BF208910F080
:10081000020FFAD0A381208910F0020F04D100BF8B
:10082000208910F0020FFAD0A4F80C90481C81B275
:100830009142E5D3BA440AF10101C9B20BF0FF00BD
:100840000B46009106F0FF0902463946FFF778FE95
:100850000099C81B02044448120C016841F00801C9
:1008600001604FF0000119D020892B4610F0020FD3
:1008700004D100BF208910F0020FFAD0A381208993
:1008800010F0020F04D100BF208910F0020FFAD03F
:10089000A4F80C90481C81B29142E5D30AF0FF0104
:1008A00040460BF0FF0206F0FF090B46FFF748FE3B
:1008B0000198DFF8B4B00204120CDBF8000040F03D
:1008C0000800CBF800004FF0000119D020892B461A
:1008D00010F0020F04D100BF208910F0020FFAD0EF
:1008E000A381208910F0020F04D100BF208910F0ED
:1008F000020FFAD0A4F80C90481C81B29142E5D3C3
:100900000AF0FF094046F6B24B4642463946FFF729
:1009100017FEA9EB07000204DBF80000120C40F000
:100920000800CBF800004FF0000104BF02B0BDE8A2
:10093000F08F208910F0020F04D100BF208910F041
:10094000020FFAD0A581208910F0020F04D100BF58
:10095000208910F0020FFAD0A681481C81B2914282
:10096000E7D302B0BDE8F08F0C0801400030014031
:100970002DE9FF4F107885B093464FF0000A00280C
:1009800004BF09B0BDE8F08F0898564C000A0190EA
:1009900012984FF00109000ACDF80000129B1BF8D5
:1009A0000A20DEB202EB420303EBC2034E4ADDF83B
:1009B00020C01A44A2F580620598D2F8A0320293B2
:1009C000D2F8A4320393CAEBCA01B2F8A8320844A1
:1009D000ADF810300699DDE9005792F8AA22C0B2AE
:1009E0008DF812200CF0FF0801F10B03C21DFFF778
:1009F000A7FD3E48016841F00801016000220DF1A9
:100A0000080C00201CF8023009FA00F10B42218981
:100A100001F0020101D139B901E089B115E000BF4F
:100A2000218911F0020FFAD0A581218911F0020F5E
:100A300004D100BF218911F0020FFAD031460FE036
:100A400000BF218911F0020FFAD0A781218911F08E
:100A5000020F04D100BF218911F0020FFAD04146E4
:100A6000A181401CC0B20728CED3208910F0020F0C
:100A700004D100BF208910F0020FFAD0A58120898F
:100A800010F0020F04D100BF208910F0020FFAD03D
:100A9000A681501CC2B20B2AB3D30020218911F0C9
:100AA000020F04D100BF218911F0020FFAD0A581F5
:100AB000218911F0020F04D100BF218911F0020F2A
:100AC000FAD0A681401CC0B20728E7D30AF1010082
:100AD00000F0FF0A1BF80A0000287FF45FAF09B09E
:100AE000BDE8F08F00300140442600080C080140AA
:100AF000D34808B500684FF47A71B0FBF1F0411E9D
:100B0000B1F1807F0AD24FF0E0204161CD4AF0215F
:100B100082F8141D0021816107210161CA49886999
:100B200041F2050210438861C848026842F430026D
:100B30000260026822F480020260026842F03042E1
:100B40000260026822F080420260026842F4403291
:100B50000260026822F4402202608A6942F01C02AC
:100B60008A61BB4A516841F040715160516821F07F
:100B700040615160016841F440510160016821F415
:100B800040410160B348018841F44171018001880E
:100B900021F03B010180818841F0020181800188C0
:100BA00041F040010180DFF8B0C2DCF8000040F005
:100BB0001000CCF80000D06840F48040D060A74B13
:100BC00005210091196018680028FCD1D06820F434
:100BD0008040D0600091196018680028FCD1D0686E
:100BE00040F48040D060DCF8000020F01000CCF829
:100BF0000000012000F0DEF99620009018601868CF
:100C00000028FCD1112000F0D5F94FF4FA700090C3
:100C1000186018680028FCD1B12000F0CBF9012041
:100C200000F0E8F92C2000F0E5F92D2000F0E2F9C1
:100C3000B22000F0BFF9012000F0DCF92C2000F018
:100C4000D9F92D2000F0D6F9B32000F0B3F9012036
:100C500000F0D0F92C2000F0CDF92D2000F0CAF9D9
:100C6000012000F0C7F92C2000F0C4F92D2000F07D
:100C7000C1F9B42000F09EF9072000F0BBF9C020B4
:100C800000F098F9A22000F0B5F9022000F0B2F9C6
:100C9000842000F0AFF9C12000F08CF9C52000F0ED
:100CA000A9F9C22000F086F90A2000F0A3F900207B
:100CB00000F0A0F9C32000F07DF98A2000F09AF935
:100CC0002A2000F097F9C42000F074F98A2000F07F
:100CD00091F9EE2000F08EF9C52000F06BF90E209E
:100CE00000F088F9202000F065F9362000F062F964
:100CF000C82000F07FF93A2000F05CF9052000F0F0
:100D000079F92A2000F056F9002000F073F900204C
:100D100000F070F9002000F06DF97F2000F06AF912
:100D20002B2000F047F9002000F064F9002000F0CB
:100D300061F9002000F05EF99F2000F05BF9E020EF
:100D400000F038F9022000F055F91C2000F052F9AB
:100D5000072000F04FF9122000F04CF9372000F086
:100D600049F9322000F046F9292000F043F92D20FE
:100D700000F040F9292000F03DF9252000F03AF973
:100D80002B2000F037F9392000F034F9002000F072
:100D900031F9012000F02EF9032000F02BF910208A
:100DA00000F028F9E12000F005F9032000F022F915
:100DB0001D2000F01FF9072000F01CF9062000F0AC
:100DC00019F92E2000F016F92C2000F013F9292033
:100DD00000F010F92D2000F00DF92E2000F00AF996
:100DE0002E2000F007F9372000F004F93F2000F032
:100DF00001F9002000F0FEF8002000F0FBF80220CE
:100E000000F0F8F8102000F0F5F8132000F0D2F808
:100E10000A200090186018680028FCD1292000F0F2
:100E2000C9F864200090186018680028FCD13620AA
:100E300000F0C0F8BDE80840002000F0DBB800007A
:100E40000C0000200FE000E000100240000801400C
:100E500000100140003001400C0801400800002053
:100E60002DE9F843054680880090AB78EA786978E8
:100E70002878FFF7A5FC6978A878EA780844401E2E
:100E800083B22878491C0244521E92B2401CFFF7DC
:100E900057FBE878A978DFF8E08000FB01FCE888E0
:100EA000C3B2020A2889C7B2060AD8F8000040F087
:100EB0000800C8F800000021304CBCF1000F17D921
:100EC000208910F0020F04D100BF208910F0020F1A
:100ED000FAD0A281208910F0020F04D100BF20892E
:100EE00010F0020FFAD0A381481C81B26145E7D30C
:100EF000E878A97A484301F0DFF9214901F0FAF8CE
:100F000001F0BAF981466978A878A9F1010208448C
:100F1000401E83B22878491C024492B2401CFFF75D
:100F20000FFBA87800FB09F00204D8F80000120CAF
:100F300040F00800C8F800004FF0000108BFBDE80D
:100F4000F883208910F0020F04D100BF208910F02F
:100F5000020FFAD0A681208910F0020F04D100BF41
:100F6000208910F0020FFAD0A781481C81B291426B
:100F7000E7D3BDE8F88300000C08014000300140D1
:100F80000000C842642988BF70478172FFF768BFBC
:100F90000023C3804FF6FF7CA0F804C04FF00F0C75
:100FA00080F802C083721F2303813223C370017053
:100FB000427070470D490A6822F008020A600C4925
:100FC0000A8912F0020F04D100BF0A8912F0020F41
:100FD000FAD08881088910F0800F08BF704700BFE1
:100FE000088910F0800FFAD1704700000C0801400A
:100FF000003001400D490A6842F008020A600C49BD
:101000000A8912F0020F04D100BF0A8912F0020F00
:10101000FAD08881088910F0800F08BF704700BFA0
:10102000088910F0800FFAD1704700000C080140C9
:101030000030014004480168002908BF704701687A
:10104000491E01607047000008000020374882B048
:10105000016841F0010101604168354A1140416079
:10106000016821F4102121F080710160016821F4F0
:1010700080210160416821F4FE0141604FF41F01AD
:101080008160002201920092016841F48031016088
:10109000016801F4003100910199491C0191009906
:1010A00019B90199B1F5A06FF2D1016811F4003FAF
:1010B00008BF009233D0012100911E490A6842F016
:1010C00010020A600A6822F003020A600A6842F00D
:1010D00002020A604168416041684160416841F430
:1010E00080614160416821F47C114160416841F4B4
:1010F000E8114160016841F080710160016811F000
:10110000007FFBD0416821F003014160416841F05C
:1011100002014160416801F00C010829FAD1064939
:101120004FF00060086002B07047000000100240FD
:101130000000FFF80020024008ED00E030B52B4829
:1011400085B0018821F001010180294C4FF08045D4
:101150006088A188401A00B22080002811DD00F0CC
:10116000BDFD00F0BFF80022224B00F0CFFD00F0E3
:1011700033FB2149884237DC01F07EF8E080288784
:1011800002E000202887E08062881CA16846FFF703
:101190001FF8A28819A102A8FFF71AF818490846F3
:1011A000C1F80CD0FFF744FA164902A8C8600846F7
:1011B000FFF73EFA60886421484340F6FF7590FBD4
:1011C000F5F0C1B21048FFF7DDFEA0886421484366
:1011D00090FBF5F0C1B20D48FFF7D4FEA1790C48A1
:1011E000FFF7D0FE05B030BD0348C5E7100800404A
:1011F00000000020000024400000C84225640000D8
:101200004400002058000020200000202C00002076
:10121000380000202DE9F0414F1E00EBC7010446C5
:10122000D1E9000115461E4637F006020DD02A46C8
:10123000334600F06BFD7F1E04EBC703D3E90023A8
:1012400000F0FCFA37F00602F1D1022F25D0042F6E
:1012500013D0062F18BFBDE8F0812A46334600F0B0
:1012600055FDD4E90A2300F0E9FA2A46334600F096
:101270004DFDD4E9082300F0E1FA2A46334600F098
:1012800045FDD4E9062300F0D9FA2A46334600F09A
:101290003DFDD4E9042300F0D1FA2A46334600F09C
:1012A00035FDD4E9022300F0C9FA2A46334600F09E
:1012B0002DFDD4E90023BDE8F04100F0BFBA0000E5
:1012C000002213461046014900F074BB0000F03FB5
:1012D000012201F081B8002213461046114600F0A9
:1012E00069BB00002DE9F04DC84A002490B091423E
:1012F00005DA21F00043934201D805D120B110B0A6
:10130000BDE8F04DFFF7E4BFB1F5801F1BDA53EAEB
:10131000000209D0002911DA0120FEF7E5FF10B024
:10132000BDE8F04DFFF7D7BF0220FEF7DDFFFFF766
:10133000C7FF10B081F00041BDE8F08D6FF03504BB
:10134000362201F049F804EB2152C1F31308B049E9
:10135000A2F2FF33414401F4801282F07F6103EB7B
:10136000225281F04051009241EA08010022A94B2B
:1013700000F0D6FD044608F10200A74EC0F31300AA
:101380000D467E44032867D2D6E90023204600F0AC
:1013900069FC1ED10098002802BFD6E9000110B0F8
:1013A000BDE8F08D00F09AFC07460C469B4A9C4B2A
:1013B00000F0ACFC06460D469A4A9B4B3846214647
:1013C00000F0A4FC10B032462B46BDE8F04D00F012
:1013D00035BA4FF05532954B2046294600F096FC21
:1013E0000022934B00F090FD06460F4622462B4606
:1013F0001046194600F08AFC32463B4600F086FC57
:10140000064600980F46F0B100F068FC80468A4618
:10141000824A834B00F07AFC32463B4600F074FD72
:1014200022462B4600F07CFD05460C467D4A7E4B4D
:101430004046514600F06AFC10B02A462346BDE8FB
:10144000F04D00F06DBD0B4610B0324620462946E7
:10145000BDE8F04D00F064BD00224FF0804320460F
:1014600000F0ECF902460B462046294600F0A2FAAD
:1014700006460F46009800F031FCCDE904013246E3
:101480003B461046394600F041FC0C9069480C9AE6
:101490004044019009910B46104600F037FC82460B
:1014A000024665488B46C8F151080B4608F5D72817
:1014B00003217844FFF7AEFE52465B4600F026FC5F
:1014C0000A905E480D9152465B4604217844FFF72E
:1014D000A1FE099B0C9A00F019FC844601980D9B13
:1014E00040EA080860460A9A00F0A8F98346089185
:1014F000B8F1000F4EDD4FF0FF322046294600F0D4
:101500006BFF22462B4600F001FC804600988A467D
:1015100060B3DDE90401414A414B00F0F7FB09915A
:1015200000905A4640465146089B00F087F93246E3
:101530003B4600F0EBFB099B009A00F07FF9424626
:10154000534600F0E1FC22462B4600F0E9FC04463D
:101550000D46DDE90401334A334B00F0D7FB10B0F0
:1015600022462B46BDE8F04D00F0DABC5A46404614
:10157000089B00F063F932463B4600F0C7FB424649
:10158000534600F0C1FC10B022462B46BDE8F04D9A
:1015900000F0BABC009840B3DDE904011F4A204BBB
:1015A00000F0B4FB80468A465A4620462946089BEE
:1015B00000F0B6FC32463B4600F0A8FB42465346DC
:1015C00000F0AEFC22462B4600F0AAFC04460D4675
:1015D000DDE90401134A144B00F098FB10B02246D9
:1015E0002B46BDE8F04D00F09BBC0B465A4620460A
:1015F000294600F095FC32463B4600F087FB10B0D0
:1016000022462B46BDE8F04D00F07EBC0000F07F86
:10161000645F09000000F03F3A1B0000763C79351A
:10162000EF39EA3D0000E0FE422EE63F5555D53F3A
:101630000000E03F86EBF9FFD2190000D01900004E
:1016400082B0FFF755FA0020FFF78CF832220A210A
:101650005048FFF79DFC4B220A214F48FFF798FCAA
:1016600064220A214D48FFF793FC4A496420042470
:10167000C8701F2008810C316420C8704FF4784076
:101680000881464864210A22C1704FF6E071018149
:1016900043A311460C300094FFF74CF840A30A22F4
:1016A0005A2140480094FFF745F8FEF7F3FE3E4903
:1016B000C86940F00500C861886940F0040088618D
:1016C0003A48026842F0B0020260026822F040022A
:1016D0000260C0044FF4E152028564238385038CC9
:1016E00043F010030384038B43F4E0430383038834
:1016F00043F001030380322303872D4B1A801B1D07
:1017000042F210721A802B4A138843F001031380AF
:101710004FF0E022C2F800012748028842F001029F
:1017200002802648026842F008020260026822F045
:1017300007020260224A136843F48073136003684F
:1017400043F080030360036823F0700303601068B4
:1017500040F400701060886940F4006088611948A6
:10176000018821F0220101801748018821F0010140
:1017700021F4807101801548018841F00101018048
:1017800013494FF4487008801248018841F0010164
:101790000180FEE7200000202C00002038000020FF
:1017A0000000000058000020001002400008014026
:1017B000280800400C0800400008004004080140D0
:1017C0000C080140202C0140182C0140082C01403D
:1017D0002C2C0140002C014021F00042A2F160526B
:1017E000B2F5801F01F0004328BFD2F17F6C0BD906
:1017F0005FEA001C43EAC20242EB507018BF704718
:1018000028BF20F001007047B2F5801FBCBF18460A
:1018100070474FEA410C1CF5001F02D2084600F049
:10182000A4BD70B500F01CFB00000089FFF7F6BFF7
:101830004FF00040A0F580007047000010B591EA1D
:10184000030F48BF83F0004300F17283841A71EBE9
:10185000030C05D2121943EB0C03001B61EB0C01C6
:10186000DFF824E14FEA1154A4EB135C1EEA430FA6
:1018700018BF9EEA445F73D023EA0E03DCF1200E0A
:1018800021EA045143F4801332D322FA0CFE10EB08
:101890000E0023FA0CFE41EB0E01CCF1200E03FAF0
:1018A0000EFE10EB0E0051F10001B1F5801FCCF1DE
:1018B000200E32D201EB045112FA0EF2BDE81040B4
:1018C00058BF7047401C38BF5FEA420218BF7047DC
:1018D000002814BF20F0010041F100014FEA41034C
:1018E00013F5001F38BF7047A1F1C04100F006BBDF
:1018F000012A43EB0302ACF1200CDCF11F0E32BFD6
:101900004FF0000E23FA0CF310EB030041EB0451EF
:10191000B4EB115FD0D0A1EB045101F5801149085F
:101920005FEA300001EB04510ED350F1000038BFE4
:1019300012FA0EFE08D1BDE81040C9E7401C38BFBE
:101940005FEA4202CAD1C3E7BDE810404FEA410353
:1019500013F5001F38BF7047A1F1C04100F0CEBAA7
:101960009EEA445F08D011EA5E0FBDE8104004BF54
:1019700001F0004100207047BDE8104070B500F054
:101980006FFA00BF64FBBE3E0000E0FF02494FF06B
:10199000000000F0EFBC00BF0000F87F491058BF06
:1019A000C1F140415B1058BFC3F140438B42EFF39C
:1019B000008070472DE9C04130B4DFF8A0C23CEA96
:1019C000111418BF3CEA131400F0EC8081EA0305FF
:1019D0001CEA111444EAD57418BF1CEA131500F070
:1019E000C780A4EB05044FF0004545EAC12145EA54
:1019F000C32341EA505143EA525304F17F749942A0
:101A000004F500344FEAC0204FEAC22208BF9042DA
:101A100000F09C804FEA13650FF24016765D4FEAA6
:101A2000134506FB05F7C7F1807706FB07F74FEA7A
:101A3000D737A7FB03687642C8F58038A7FB06CEE8
:101A400038BFA8F1010807FB08E64FF0000EA6FB1F
:101A5000028CE6FB03CEDCF1000CCEF1004E38BF69
:101A6000AEF1010EA6FB0C584FF000074FF0000539
:101A7000E6FB0E87A1FB08C6A0FB07CE16EB0E0601
:101A800045F10005E1FB076515F1E04E7EBFA4F5C9
:101A900080345FEA46066D4116F1800745F1000586
:101AA0004FEA17274FEA066647EA0567A6F1DE46C2
:101AB000B6F1805F4FEA15251FD9384624F0010C96
:101AC00005EBC471BCF1FE6F01EB0C1102D8F0BC48
:101AD000BDE8008124425CBF01F5801E9EEAC47F00
:101AE00002D4F0BCBDE80081244238D4F0BCA1F19E
:101AF000C041BDE8004100F001BA4FEAD22242EAFB
:101B000043524FEAD323A7FB02864FEAD02040EA94
:101B1000415007FB03661EEA0E0F4FEAD12105FB79
:101B2000026658BFA6EB0056B6EB00564FEA520EBF
:101B30004EEAC37E18EB0E0E56EB530EBDD518EBD6
:101B400002085E417F1C55F10005B6E74FF4801591
:101B50004FF000074FF000064FF00008ADE7F0BC73
:101B60004FF0000001F1C04101F00041BDE80081EB
:101B700011EA0C1F0CEA131500D00CE013EA0C1F3D
:101B800000F025804FF00000F0BC81EA030101F075
:101B90000041BDE80081F0BCBDE8004181EA0301DD
:101BA00000F0ACB9F0BCBDE8004170B500F058F9E8
:101BB000097EFC3E00F007B881EA03014FF0000007
:101BC00001F00041704781EA030100F097B9F0BCD1
:101BD000BDE800414FF0000021497047FFFDFBF9CF
:101BE000F7F5F4F2F0EEEDEBE9E8E6E4E3E1E0DE50
:101BF000DDDBDAD8D7D5D4D3D1D0CFCDCCCBCAC8C2
:101C0000C7C6C5C4C2C1C0BFBEBDBCBBBAB9B8B7E8
:101C1000B6B5B4B3B2B1B0AFAEADACABAAA9A8A8DB
:101C2000A7A6A5A4A3A3A2A1A09F9F9E9D9C9C9BA9
:101C30009A99999897979695959493939291919054
:101C40008F8F8E8E8D8C8C8B8B8A898988888787E5
:101C50008685858484838382828181800000FF075A
:101C60000000F87F51EA030C17D41CF5801F58BF01
:101C7000BCF5801F00F10680994218BF704708BF6D
:101C80009042704707D711F5801F58BF13F5801F8A
:101C900019D499427047894270471CF5801F08D5B6
:101CA000BCF5801FF7D58B4218BF704708BF824232
:101CB00070474FF4001C1CEB410F38BF1CEB430F67
:101CC00001D28B42704770B500F0CAF892244900E7
:101CD0004FF000514FF08053FFF760BE10F000420C
:101CE00048BF4042B0FA80F310FA03F10AD0C3F1C2
:101CF0001D0303F580634FEA415002EB035202EBF0
:101D0000D12170474FF0000070470000DFF848C154
:101D100070B51CEA111E1EBF1CEA13159EEA0C0FBB
:101D200095EA0C0F00F06F8081EA030423EA4C135C
:101D30004EEAD47E21EA4C1141F4801143F4801321
:101D4000AE44A1FB024CA0FB0365AEF17F7E3619C9
:101D500055EB0C05A1FB034C4CF10003A0FB021C4E
:101D600016EB0C06654153F10003094218BF46F01B
:101D7000010613F4007F0BD14FEA03314FEA05301F
:101D8000340341EA155140EA16506FF003020AE0AD
:101D90004FEAC3214FEAC520F40241EA555140EA17
:101DA00056506FF0020202EB2E4201EB025585EA1B
:101DB000CE710AD05FEA440C18BF24F0004450F101
:101DC000000041F1000120EAD47040F2FE7C62453F
:101DD00000D270BDA84214BF4FF080444FF0404481
:101DE000002E08BF0024BEF1806FA8BFA1F1C04142
:101DF000BDE8704080F282804FF0000001F1C041E8
:101E000001F0004170479EEA0C0F0CEA131518BF51
:101E100095EA0C0F06D04FF0000081EA030E0EF099
:101E2000004170BD00F01CF88900013E00F007B8C9
:101E300000F009B84FEA430C5FEA5C5C08D081EA25
:101E4000030100F05BB84FEA410C5FEA5C5CF6D13D
:101E50004FF00000014970470000FF070000F87FC5
:101E60000EF1020E2EF0030E5EF8046B364205D41E
:101E7000012A43EB030515F5001F12D8012841EB99
:101E8000010C1CF5001F0CD80ED14FEAD17C15F5C2
:101E9000001F0CEB4C0C0CF1020C08BF4CEBD37C7C
:101EA00004E04FF0080C01E04FEAD37C0CEB4C054A
:101EB00026FA05F606F00706B6F1040C06D20EEB7C
:101EC000860CBDE870404CF0010C6047DFE80CF078
:101ED000090B02024FF000414FF00000A1F5002174
:101EE00070BD19461046012851EB010418BFD4F506
:101EF000001484BF002001F0004170BD0808A0F567
:101F000000114FEA3101704791EA030F10B581F0DB
:101F100000413FF59BAC83F0004300F009B800009E
:101F200010B591EA030F48BF83F000433FF58EAC34
:101F3000841A71EB030C07D212198CF0004C43EB9E
:101F40000C03001B61EB0C01DFF8A4E14FEA115414
:101F5000A4EB135C1EEA430F18BF9EEA445F00F037
:101F6000B08023EA6E03524221EA0451C3EB6E03B0
:101F700038BF5B1EDCF1200E25D322FA0CFE10EBDD
:101F80000E0043FA0CFE41EB0E01CCF1200E03FAD9
:101F90000EFE10EB0E0051F10001CCF1200E29D401
:101FA00012FA0EF201EB0451BDE8104058BF704721
:101FB000401C1CBFB2F1004F704700280CBF491CE9
:101FC00020F00100704712EB020E43EB030218BF32
:101FD0004FF0010E4EEA4202ACF1200CDCF11E0E75
:101FE00054D943FA0CFE10EB0E0051F1FF31CCF145
:101FF0001E0ED5D50EF1010E12FA0EFE404141EB38
:10200000010101EB445C5FEA5C5C10D910EBDE700F
:1020100001EB045138BFBEF1004FBDE8104018BFBE
:10202000704700280CBF491C20F00100704730D2D7
:102030004FEAD42C11F5001124F400641BD0B1FA3E
:1020400081F20B3AA41AA41ED2F12003914030FA77
:1020500003F31943904001EBCC71002C01EB0451C8
:10206000BDE81040A8BF704701F1C0414FF000002B
:1020700001F000417047B0FA80F310FA03F100D18B
:1020800010BDE41A173C4805C90AE4E701EB045106
:1020900010BD491001EB0451BDE810404FEA30007B
:1020A00002E04FF0000170474A0008BF0042F8D03C
:1020B000B2F5001F28BF704701F000414FF000004B
:1020C00070479EEA445F07D011EA5E0FBDE81040FA
:1020D00004BF002100207047BDE8104070B5FFF735
:1020E000BFFE00BF40DFF63E83F000411046704760
:1020F0000000E0FF4FF47F0C1CEAD0121EBF1CEA68
:10210000D11392EA0C0F93EA0C0F00F0858090EA4D
:10211000010F48BF42F4807240F4000C41F400000B
:102120002CF07F4120F07F4000B58142A2EB0302FA
:102130000FF2081CACEB504EC0F100009EF800E01E
:102140004FEA4E0E00FB0EFC38BF49004FEA2C1C34
:1021500002F5FA020CFB0EF34FEACE1E4FEA112CE9
:102160004FEAC1210EEB635E42EB22420EFB0CFCF8
:102170004FEA1C5300FB03114FEA112C4FEA0131C7
:102180000EFB0CFC4FEADC4C00FB0C11C14228BFDB
:1021900009184CEB03335DF804EB10EB410143EB02
:1021A000C250B2F57C0F38BF704729D512F0F00F3E
:1021B0001CBF00F1C04000F00040704700818283E6
:1021C0008485868788898B8C8D8E8F919293959646
:1021D00097999A9C9D9FA0A2A3A5A7A8AAACAEB0D0
:1021E000B2B3B5B7B9BCBEC0C2C5C7C9CCCED1D4D5
:1021F000D7D9DCDFE2E6E9ECF0F3F7FAFE00000005
:102200004FEA400C0CF1807CBCF17E4F28BF704738
:10221000B0F1C04000F0A9B890EA010F0CEAD11368
:1022200048BF42F48072624538BF634507D213F459
:102230007F0F16D080EA010000F00040704710B513
:1022400000F04DF8097EFC3E00F005B880EA010080
:1022500000F00040704780EA010000F0004000F00C
:1022600084B812F47F0F04BF0248704780EA01006F
:1022700000F07BB80000C07FC10DD1F19E0206DBEB
:102280004FEA002343F0004323FA02F07047004274
:1022900007D54FEA4001B1F1FE4F02D24FF00000E6
:1022A000704710B500F01BF8499224800020704759
:1022B0006FEA200070470000B0FA80F310FA03F2D2
:1022C000C3F19D030AD0D90501EB1220530638BF94
:1022D000704700F1010008BF20F0010070470EF1C7
:1022E000020E2EF0030E5EF8044B244204D44FEA93
:1022F0004102B2F17F4F11D84FEA4003B3F17F4F53
:102300000CD80ED14FEAD07CB2F17F4F0CEB4C0CC5
:102310000CF1020C08BF4CEBD17C04E04FF0080C30
:1023200001E04FEAD17C0CEB4C0324FA03F404F0F7
:102330000704B4F1040C06D20EEB840CBDE8104087
:102340004CF0010C6047DFE80CF0070802024FF088
:102350000040A0F5800010BD0846420018BFD2F131
:10236000807288BF00F0004010BDFF2141EAD050CC
:10237000C00570470CF00F03092B08BF082000F0C0
:1023800059800A2B0BD0082B18BF704708BF1CF0D0
:10239000400F0AD04FF000004FF0000170471CF0D2
:1023A000400F18BF4FF0004070471CF0100F08D0CE
:1023B00020F0704300F07F4242EAD3014FEA4370BD
:1023C000704700F0604021F07F4242EA000201F0D5
:1023D0007F4040EA727070474FF0FF0C4CF4E06CA5
:1023E0001CEA11531CBF9CEA030C9445C2BFDA429D
:1023F00001EB02517047002B0DD0BCF1000F0FD044
:10240000002A01F00041A4BF41F0E04141F07F61AA
:102410004FF00000704701F000414FF0000070479E
:1024200050EA01334FF09B0C18BF4CF0806C7FF4E6
:10243000ADAA70471CF4801F11D01CF4E02F03D00C
:102440006FEACC31490070474FF04050EFF3008203
:1024500022F0704242EA000282F3008870474FF097
:1024600000007047000000000000005F000000074F
:10247000000700147F147F14242A7F2A12231308D4
:10248000646236495522500005030000001C2241B9
:10249000000041221C00082A1C2A0808083E0808DF
:1024A00000503000000808080808006060000020A4
:1024B000100804023E5149453E00427F40004261FF
:1024C0005149462141454B311814127F102745458B
:1024D00045393C4A494930017109050336494949A2
:1024E00036064949291E00363600000056360000DF
:1024F0000008142241141414141441221408000278
:1025000001510906324979413E7E1111117E7F4900
:102510004949363E414141227F4141221C7F494980
:1025200049417F090901013E414151327F080808B4
:102530007F00417F41002040413F017F081422413C
:102540007F404040407F0204027F7F0408107F3EAE
:102550004141413E7F090909063E4151215E7F0903
:10256000192946464949493101017F01013F40404F
:10257000403F1F2040201F7F2018207F6314081435
:10258000630304780403615149454300007F4141DE
:10259000020408102041417F0000040201020440AF
:1025A00040404040000102040020545454787F48C9
:1025B0004444383844444420384444487F385454D0
:1025C0005418087E090102081454543C7F0804047E
:1025D0007800447D40002040443D00007F102844A6
:1025E00000417F40007C041804787C08040478389B
:1025F000444444387C14141408081414187C7C08CF
:102600000404084854545420043F4440203C4040B3
:10261000207C1C2040201C3C4030403C442810289A
:10262000440C5050503C4464544C44000836410023
:1026300000007F0000004136080008082A1C080836
:102640001C2A08080000000000000000000000082C
:1026500008080808080808000808121212000000FC
:1026600000000000004848247F2424127F1209093A
:10267000083E4909093E4848493E084725271010A9
:102680000808047252710609090926222529112910
:1026900046080808000000000000000008040402CA
:1026A00002020202040408040808101010101008A6
:1026B000080400082A1C2A0800000000000000008E
:1026C00008083E08080000000000000000000000AC
:1026D000080C0400000000003E00000000000000A4
:1026E000000000000000001818101010080808046E
:1026F000040402021C2251514949494545221C0843
:102700000C0A080808080808083E1E21404040201E
:10271000100804027F1F204040201E204040201F40
:1027200030282422217F20202020207F0101011F2A
:1027300020404040201F380402011D234141412216
:102740001C7F402020101008080404021C22414174
:10275000221C224141221C1C22414141625C40203A
:10276000100E00000C0C0000000C0C000000000C0F
:102770000C0000000C0C08040040300C0201020C9C
:10278000304000000000007F00007F0000000001DA
:102790000618204020180601003E4140403008083D
:1027A000080008081C2241495555553901023C08CA
:1027B0001414222241417F4141411F2121211F2127
:1027C000414141211F3C4201010101010101423C03
:1027D0001F2242424242424242221F7F0101011F08
:1027E00001010101017F7F0101013F01010101019F
:1027F000013C4201010179414141423C4141414199
:102800007F4141414141411C080808080808080867
:10281000081C1E1010101010101010110E2111099C
:102820000503030509112141010101010101010114
:1028300001017F4163555549494141414141414170
:102840004143434549515161411C2241414141416C
:102850004141221C1F21414141211F010101011C55
:102860002241414141414951225C1F2141414121C5
:102870001F091121411C224101021C204041221C40
:102880007F08080808080808080808414141414134
:1028900041414141221C41412222222214141408A8
:1028A000084141414149494955556341412222145A
:1028B000080808142222414141221414080808087B
:1028C00008087F4040201008040201017F1C040416
:1028D000040404040404041C01020204040408089F
:1028E0000810100E0808080808080808080E081440
:1028F0002241000000000000000000000000000075
:102900000000007F0408000000000000000000003C
:1029100000003E41407E4141615E0101011D2341B5
:10292000414141231D0000003C4201010101423CA4
:102930004040405C6241414141625C0000001C2219
:10294000417F0101423C1C04040E040404040404FD
:10295000040000005E6141615E40211E0101013DF5
:10296000434141414141410808000808080808085E
:102970000808001000181010101010120C010101AE
:102980002111090709112141040404040404040469
:1029900004040C000000255B4949494949490000ED
:1029A000001D234141414141410000001C224141A1
:1029B0004141221C0000001F214141211F01010053
:1029C00000002C32212121322C200000003D430147
:1029D00001010101010000003E41010E3040413E75
:1029E0000004043E0404040404043800000021210F
:1029F00021212121312E00000041412222141408FE
:102A00000800000041414149494949360000004160
:102A100022140808142241000000424242243810C7
:102A200008060000007F2010080402017F18080833
:102A30000804060408080818080808080808080810
:102A40000808080C0808081030100808080C0000D6
:102A50000000040A51200000007F7F7F7F7F7F7F7E
:102A60007F7F7F7F00000000000000000000005515
:102A7000494222242418100804030014084141424A
:102A800024381008061E1010101010101010110E0F
:102A9000000000211E12121E210000407F010101D2
:102AA00001010101010108080808000000080808E8
:102AB000081008040814221408100804147F0101E7
:102AC000011F010101017F1C22415D4545455D411A
:102AD000221C3C420101011F010101423C00000097
:102AE000482412091224480000000000007F4040E2
:102AF00000000000000000001C00000000003E413B
:102B0000415D554D555541413E14001C08080808CB
:102B10000808081C00001C2222221C0000000000E3
:102B20000008083E0808003E00001C0808080808C5
:102B3000080808081C080800080808080808080809
:102B40000000203F010101010101010000002222DB
:102B50002222225E0201007E27262424242424240B
:102B60002400000008080000000000000012001C03
:102B700022417F0101221C70507000434549516180
:102B800041410000003C42011F0101423C000000A5
:102B90000912244824120900001000181010101007
:102BA00010120C1C224101021C204041221C00007A
:102BB000003E41010E3040413E0014000808080864
:102BC00008080808081414222241417F4141417F2E
:102BD0000101011F21414141211F1F2121211F21ED
:102BE000414141211F7F0101010101010101010159
:102BF0003E2222222222222222227F7F0101011F45
:102C000001010101017F4949492A1C1C2A2A49491D
:102C1000491E214040201E204040211E416151514B
:102C2000494545434141414D615151494545434124
:102C30004141611109090503050911214178444207
:102C40004242424242424241416355554949414113
:102C5000414141414141417F4141414141411C226A
:102C600041414141414141221C7F4141414141415A
:102C7000414141411F21414141211F010101013CCD
:102C80004201010101010101423C7F0808080808D6
:102C900008080808084141422224241810080403A7
:102CA000081C2A49494949492A1C0841222214087A
:102CB0000808142222412121212121212121213F03
:102CC000404141414141417E4040404041414149B4
:102CD0004949494949497F41414149494949494946
:102CE0007F40030202021E22424242221E41414113
:102CF0004147495151514947010101011F214141BA
:102D000041211F0F302040407C404020300F1129CE
:102D10004545454745454529117C42414141427C55
:102D2000484442410000003E41407E4141615E1CFA
:102D300002011D2341414141231D0000001F2121AB
:102D40001F2121211F0000003F010101010101019C
:102D50000000003C2222222121217F0000001C22B1
:102D6000417F0101423C00000049492A1C2A49498F
:102D7000490000003E41403C4040413E00000021EF
:102D8000213129252523210000002D213129252548
:102D900023210000006111090709112141000000F1
:102DA0007844424242424241000000416355494159
:102DB0004141410000004141417F4141414100000A
:102DC000001C2241414141221C0000007F41414141
:102DD000414141410000001D234141231D010100EB
:102DE00000003C4201010101423C0000007F080854
:102DF000080808080800000041414224381008066D
:102E0000000000081C2A49492A1C08000000412231
:102E10001408081422410000002121212121213E13
:102E200040000000414141417E40404000000041DF
:102E30004149494949497F000000414149494949BF
:102E40007F400000000302023E4242423E0000007A
:102E50004141414F5151514F0000000101013F419B
:102E600041413F0000001E21407C4040211E0000E7
:102E70000011294547474529110000007E41414185
:102E80007E4844420000000004FA97999999D93F7E
:102E9000AF788E1DC571CC3F9FC678D0099AC33FCD
:102EA000935555555555E53F599322942449D23FA2
:102EB000DE03CB966446C73F44523EDF12F1C23F69
:102EC0000000000000000000E82E000800000020C4
:102ED0002000000028010008082F00082000002022
:102EE000B0060000440100080000000000000000DF
:102EF0000000000000A24A040000000000000000E2
:082F00000102030406070809A1
:04000005080000ED02
:00000001FF
